{
    "_format": "hh-sol-artifact-1",
    "contractName": "MyEpicNFT",
    "sourceName": "contracts/MyEpicNFT.sol",
    "abi": [
        {
            "inputs": [],
            "stateMutability": "nonpayable",
            "type": "constructor"
        },
        {
            "anonymous": false,
            "inputs": [
                {
                    "indexed": true,
                    "internalType": "address",
                    "name": "owner",
                    "type": "address"
                },
                {
                    "indexed": true,
                    "internalType": "address",
                    "name": "approved",
                    "type": "address"
                },
                {
                    "indexed": true,
                    "internalType": "uint256",
                    "name": "tokenId",
                    "type": "uint256"
                }
            ],
            "name": "Approval",
            "type": "event"
        },
        {
            "anonymous": false,
            "inputs": [
                {
                    "indexed": true,
                    "internalType": "address",
                    "name": "owner",
                    "type": "address"
                },
                {
                    "indexed": true,
                    "internalType": "address",
                    "name": "operator",
                    "type": "address"
                },
                {
                    "indexed": false,
                    "internalType": "bool",
                    "name": "approved",
                    "type": "bool"
                }
            ],
            "name": "ApprovalForAll",
            "type": "event"
        },
        {
            "anonymous": false,
            "inputs": [
                {
                    "indexed": true,
                    "internalType": "address",
                    "name": "from",
                    "type": "address"
                },
                {
                    "indexed": true,
                    "internalType": "address",
                    "name": "to",
                    "type": "address"
                },
                {
                    "indexed": true,
                    "internalType": "uint256",
                    "name": "tokenId",
                    "type": "uint256"
                }
            ],
            "name": "Transfer",
            "type": "event"
        },
        {
            "inputs": [],
            "name": "_tokenIds",
            "outputs": [
                {
                    "internalType": "uint256",
                    "name": "_value",
                    "type": "uint256"
                }
            ],
            "stateMutability": "view",
            "type": "function"
        },
        {
            "inputs": [
                {
                    "internalType": "address",
                    "name": "to",
                    "type": "address"
                },
                {
                    "internalType": "uint256",
                    "name": "tokenId",
                    "type": "uint256"
                }
            ],
            "name": "approve",
            "outputs": [],
            "stateMutability": "nonpayable",
            "type": "function"
        },
        {
            "inputs": [
                {
                    "internalType": "address",
                    "name": "owner",
                    "type": "address"
                }
            ],
            "name": "balanceOf",
            "outputs": [
                {
                    "internalType": "uint256",
                    "name": "",
                    "type": "uint256"
                }
            ],
            "stateMutability": "view",
            "type": "function"
        },
        {
            "inputs": [
                {
                    "internalType": "uint256",
                    "name": "tokenId",
                    "type": "uint256"
                }
            ],
            "name": "getApproved",
            "outputs": [
                {
                    "internalType": "address",
                    "name": "",
                    "type": "address"
                }
            ],
            "stateMutability": "view",
            "type": "function"
        },
        {
            "inputs": [],
            "name": "getCount",
            "outputs": [
                {
                    "internalType": "uint256",
                    "name": "",
                    "type": "uint256"
                }
            ],
            "stateMutability": "view",
            "type": "function"
        },
        {
            "inputs": [
                {
                    "internalType": "address",
                    "name": "owner",
                    "type": "address"
                },
                {
                    "internalType": "address",
                    "name": "operator",
                    "type": "address"
                }
            ],
            "name": "isApprovedForAll",
            "outputs": [
                {
                    "internalType": "bool",
                    "name": "",
                    "type": "bool"
                }
            ],
            "stateMutability": "view",
            "type": "function"
        },
        {
            "inputs": [],
            "name": "makeAnEpicNFT",
            "outputs": [
                {
                    "internalType": "bool",
                    "name": "",
                    "type": "bool"
                }
            ],
            "stateMutability": "nonpayable",
            "type": "function"
        },
        {
            "inputs": [],
            "name": "name",
            "outputs": [
                {
                    "internalType": "string",
                    "name": "",
                    "type": "string"
                }
            ],
            "stateMutability": "view",
            "type": "function"
        },
        {
            "inputs": [
                {
                    "internalType": "uint256",
                    "name": "tokenId",
                    "type": "uint256"
                }
            ],
            "name": "ownerOf",
            "outputs": [
                {
                    "internalType": "address",
                    "name": "",
                    "type": "address"
                }
            ],
            "stateMutability": "view",
            "type": "function"
        },
        {
            "inputs": [
                {
                    "internalType": "uint256",
                    "name": "tokenId",
                    "type": "uint256"
                }
            ],
            "name": "pickRandomFirstWord",
            "outputs": [
                {
                    "internalType": "string",
                    "name": "",
                    "type": "string"
                }
            ],
            "stateMutability": "view",
            "type": "function"
        },
        {
            "inputs": [
                {
                    "internalType": "uint256",
                    "name": "tokenId",
                    "type": "uint256"
                }
            ],
            "name": "pickRandomSecondWord",
            "outputs": [
                {
                    "internalType": "string",
                    "name": "",
                    "type": "string"
                }
            ],
            "stateMutability": "view",
            "type": "function"
        },
        {
            "inputs": [
                {
                    "internalType": "uint256",
                    "name": "tokenId",
                    "type": "uint256"
                }
            ],
            "name": "pickRandomThirdWord",
            "outputs": [
                {
                    "internalType": "string",
                    "name": "",
                    "type": "string"
                }
            ],
            "stateMutability": "view",
            "type": "function"
        },
        {
            "inputs": [
                {
                    "internalType": "address",
                    "name": "from",
                    "type": "address"
                },
                {
                    "internalType": "address",
                    "name": "to",
                    "type": "address"
                },
                {
                    "internalType": "uint256",
                    "name": "tokenId",
                    "type": "uint256"
                }
            ],
            "name": "safeTransferFrom",
            "outputs": [],
            "stateMutability": "nonpayable",
            "type": "function"
        },
        {
            "inputs": [
                {
                    "internalType": "address",
                    "name": "from",
                    "type": "address"
                },
                {
                    "internalType": "address",
                    "name": "to",
                    "type": "address"
                },
                {
                    "internalType": "uint256",
                    "name": "tokenId",
                    "type": "uint256"
                },
                {
                    "internalType": "bytes",
                    "name": "_data",
                    "type": "bytes"
                }
            ],
            "name": "safeTransferFrom",
            "outputs": [],
            "stateMutability": "nonpayable",
            "type": "function"
        },
        {
            "inputs": [
                {
                    "internalType": "address",
                    "name": "operator",
                    "type": "address"
                },
                {
                    "internalType": "bool",
                    "name": "approved",
                    "type": "bool"
                }
            ],
            "name": "setApprovalForAll",
            "outputs": [],
            "stateMutability": "nonpayable",
            "type": "function"
        },
        {
            "inputs": [
                {
                    "internalType": "bytes4",
                    "name": "interfaceId",
                    "type": "bytes4"
                }
            ],
            "name": "supportsInterface",
            "outputs": [
                {
                    "internalType": "bool",
                    "name": "",
                    "type": "bool"
                }
            ],
            "stateMutability": "view",
            "type": "function"
        },
        {
            "inputs": [],
            "name": "symbol",
            "outputs": [
                {
                    "internalType": "string",
                    "name": "",
                    "type": "string"
                }
            ],
            "stateMutability": "view",
            "type": "function"
        },
        {
            "inputs": [
                {
                    "internalType": "uint256",
                    "name": "tokenId",
                    "type": "uint256"
                }
            ],
            "name": "tokenURI",
            "outputs": [
                {
                    "internalType": "string",
                    "name": "",
                    "type": "string"
                }
            ],
            "stateMutability": "view",
            "type": "function"
        },
        {
            "inputs": [
                {
                    "internalType": "address",
                    "name": "from",
                    "type": "address"
                },
                {
                    "internalType": "address",
                    "name": "to",
                    "type": "address"
                },
                {
                    "internalType": "uint256",
                    "name": "tokenId",
                    "type": "uint256"
                }
            ],
            "name": "transferFrom",
            "outputs": [],
            "stateMutability": "nonpayable",
            "type": "function"
        }
    ],
    "bytecode": "0x608060405260405180610160016040528061012f81526020016200452661012f913960089080519060200190620000389291906200067e565b506040518060c001604052806040518060400160405280600181526020017f610000000000000000000000000000000000000000000000000000000000000081525081526020016040518060400160405280600181526020017f620000000000000000000000000000000000000000000000000000000000000081525081526020016040518060400160405280600181526020017f630000000000000000000000000000000000000000000000000000000000000081525081526020016040518060400160405280600181526020017f640000000000000000000000000000000000000000000000000000000000000081525081526020016040518060400160405280600181526020017f650000000000000000000000000000000000000000000000000000000000000081525081526020016040518060400160405280600181526020017f66000000000000000000000000000000000000000000000000000000000000008152508152506009906006620001b69291906200070f565b506040518060c001604052806040518060400160405280600181526020017f310000000000000000000000000000000000000000000000000000000000000081525081526020016040518060400160405280600181526020017f320000000000000000000000000000000000000000000000000000000000000081525081526020016040518060400160405280600181526020017f330000000000000000000000000000000000000000000000000000000000000081525081526020016040518060400160405280600181526020017f340000000000000000000000000000000000000000000000000000000000000081525081526020016040518060400160405280600181526020017f350000000000000000000000000000000000000000000000000000000000000081525081526020016040518060400160405280600181526020017f3600000000000000000000000000000000000000000000000000000000000000815250815250600a906006620003349291906200070f565b506040518060c001604052806040518060400160405280600181526020017f410000000000000000000000000000000000000000000000000000000000000081525081526020016040518060400160405280600181526020017f420000000000000000000000000000000000000000000000000000000000000081525081526020016040518060400160405280600181526020017f430000000000000000000000000000000000000000000000000000000000000081525081526020016040518060400160405280600181526020017f440000000000000000000000000000000000000000000000000000000000000081525081526020016040518060400160405280600181526020017f450000000000000000000000000000000000000000000000000000000000000081525081526020016040518060400160405280600181526020017f4600000000000000000000000000000000000000000000000000000000000000815250815250600b906006620004b29291906200070f565b50348015620004c057600080fd5b506040518060400160405280600981526020017f5371756172654e465400000000000000000000000000000000000000000000008152506040518060400160405280600681526020017f53515541524500000000000000000000000000000000000000000000000000008152508160009080519060200190620005459291906200067e565b5080600190805190602001906200055e9291906200067e565b505050620005ac6040518060400160405280601881526020017f54686973206973206d79204e465420636f6e74726163742e0000000000000000815250620005b260201b620012251760201c565b62000930565b6200065281604051602401620005c9919062000844565b6040516020818303038152906040527f41304fac000000000000000000000000000000000000000000000000000000007bffffffffffffffffffffffffffffffffffffffffffffffffffffffff19166020820180517bffffffffffffffffffffffffffffffffffffffffffffffffffffffff83818316178352505050506200065560201b60201c565b50565b60008151905060006a636f6e736f6c652e6c6f679050602083016000808483855afa5050505050565b8280546200068c90620008ba565b90600052602060002090601f016020900481019282620006b05760008555620006fc565b82601f10620006cb57805160ff1916838001178555620006fc565b82800160010185558215620006fc579182015b82811115620006fb578251825591602001919060010190620006de565b5b5090506200070b919062000776565b5090565b82805482825590600052602060002090810192821562000763579160200282015b8281111562000762578251829080519060200190620007519291906200067e565b509160200191906001019062000730565b5b50905062000772919062000795565b5090565b5b808211156200079157600081600090555060010162000777565b5090565b5b80821115620007b95760008181620007af9190620007bd565b5060010162000796565b5090565b508054620007cb90620008ba565b6000825580601f10620007df575062000800565b601f016020900490600052602060002090810190620007ff919062000776565b5b50565b6000620008108262000868565b6200081c818562000873565b93506200082e81856020860162000884565b62000839816200091f565b840191505092915050565b6000602082019050818103600083015262000860818462000803565b905092915050565b600081519050919050565b600082825260208201905092915050565b60005b83811015620008a457808201518184015260208101905062000887565b83811115620008b4576000848401525b50505050565b60006002820490506001821680620008d357607f821691505b60208210811415620008ea57620008e9620008f0565b5b50919050565b7f4e487b7100000000000000000000000000000000000000000000000000000000600052602260045260246000fd5b6000601f19601f8301169050919050565b613be680620009406000396000f3fe608060405234801561001057600080fd5b50600436106101215760003560e01c806395d89b41116100ad578063b88d4fde11610071578063b88d4fde1461032e578063c575757a1461034a578063c87b56dd1461037a578063de9d132f146103aa578063e985e9c5146103c857610121565b806395d89b4114610288578063a22cb465146102a6578063a87d942c146102c2578063aa46a400146102e0578063b187301f146102fe57610121565b806323b872dd116100f457806323b872dd146101c05780632de38d68146101dc57806342842e0e1461020c5780636352211e1461022857806370a082311461025857610121565b806301ffc9a71461012657806306fdde0314610156578063081812fc14610174578063095ea7b3146101a4575b600080fd5b610140600480360381019061013b91906126ed565b6103f8565b60405161014d9190612dce565b60405180910390f35b61015e6104da565b60405161016b9190612de9565b60405180910390f35b61018e6004803603810190610189919061273f565b61056c565b60405161019b9190612d67565b60405180910390f35b6101be60048036038101906101b991906126b1565b6105f1565b005b6101da60048036038101906101d591906125ab565b610709565b005b6101f660048036038101906101f1919061273f565b610769565b6040516102039190612de9565b60405180910390f35b610226600480360381019061022191906125ab565b610905565b005b610242600480360381019061023d919061273f565b610925565b60405161024f9190612d67565b60405180910390f35b610272600480360381019061026d9190612546565b6109d7565b60405161027f9190613079565b60405180910390f35b610290610a8f565b60405161029d9190612de9565b60405180910390f35b6102c060048036038101906102bb9190612675565b610b21565b005b6102ca610b37565b6040516102d79190613079565b60405180910390f35b6102e8610b48565b6040516102f59190613079565b60405180910390f35b6103186004803603810190610313919061273f565b610b54565b6040516103259190612de9565b60405180910390f35b610348600480360381019061034391906125fa565b610c72565b005b610364600480360381019061035f919061273f565b610cd4565b6040516103719190612de9565b60405180910390f35b610394600480360381019061038f919061273f565b610df2565b6040516103a19190612de9565b60405180910390f35b6103b2610f44565b6040516103bf9190612dce565b60405180910390f35b6103e260048036038101906103dd919061256f565b611191565b6040516103ef9190612dce565b60405180910390f35b60007f80ac58cd000000000000000000000000000000000000000000000000000000007bffffffffffffffffffffffffffffffffffffffffffffffffffffffff1916827bffffffffffffffffffffffffffffffffffffffffffffffffffffffff191614806104c357507f5b5e139f000000000000000000000000000000000000000000000000000000007bffffffffffffffffffffffffffffffffffffffffffffffffffffffff1916827bffffffffffffffffffffffffffffffffffffffffffffffffffffffff1916145b806104d357506104d2826112be565b5b9050919050565b6060600080546104e99061330d565b80601f01602080910402602001604051908101604052809291908181526020018280546105159061330d565b80156105625780601f1061053757610100808354040283529160200191610562565b820191906000526020600020905b81548152906001019060200180831161054557829003601f168201915b5050505050905090565b600061057782611328565b6105b6576040517f08c379a00000000000000000000000000000000000000000000000000000000081526004016105ad90612ff9565b60405180910390fd5b6004600083815260200190815260200160002060009054906101000a900473ffffffffffffffffffffffffffffffffffffffff169050919050565b60006105fc82610925565b90508073ffffffffffffffffffffffffffffffffffffffff168373ffffffffffffffffffffffffffffffffffffffff16141561066d576040517f08c379a000000000000000000000000000000000000000000000000000000000815260040161066490613039565b60405180910390fd5b8073ffffffffffffffffffffffffffffffffffffffff1661068c611394565b73ffffffffffffffffffffffffffffffffffffffff1614806106bb57506106ba816106b5611394565b611191565b5b6106fa576040517f08c379a00000000000000000000000000000000000000000000000000000000081526004016106f190612f39565b60405180910390fd5b610704838361139c565b505050565b61071a610714611394565b82611455565b610759576040517f08c379a000000000000000000000000000000000000000000000000000000000815260040161075090613059565b60405180910390fd5b610764838383611533565b505050565b6060600061079d6107798461179a565b6040516020016107899190612d23565b604051602081830303815290604052611947565b90506107de6040518060400160405280600d81526020017f72616e64202d20736565643a20000000000000000000000000000000000000008152508261197a565b600980549050816107ef91906133b9565b90506108306040518060400160405280601381526020017f72616e64202d20666972737420776f72643a20000000000000000000000000008152508261197a565b6009818154811061086a577f4e487b7100000000000000000000000000000000000000000000000000000000600052603260045260246000fd5b90600052602060002001805461087f9061330d565b80601f01602080910402602001604051908101604052809291908181526020018280546108ab9061330d565b80156108f85780601f106108cd576101008083540402835291602001916108f8565b820191906000526020600020905b8154815290600101906020018083116108db57829003601f168201915b5050505050915050919050565b61092083838360405180602001604052806000815250610c72565b505050565b6000806002600084815260200190815260200160002060009054906101000a900473ffffffffffffffffffffffffffffffffffffffff169050600073ffffffffffffffffffffffffffffffffffffffff168173ffffffffffffffffffffffffffffffffffffffff1614156109ce576040517f08c379a00000000000000000000000000000000000000000000000000000000081526004016109c590612f79565b60405180910390fd5b80915050919050565b60008073ffffffffffffffffffffffffffffffffffffffff168273ffffffffffffffffffffffffffffffffffffffff161415610a48576040517f08c379a0000000000000000000000000000000000000000000000000000000008152600401610a3f90612f59565b60405180910390fd5b600360008373ffffffffffffffffffffffffffffffffffffffff1673ffffffffffffffffffffffffffffffffffffffff168152602001908152602001600020549050919050565b606060018054610a9e9061330d565b80601f0160208091040260200160405190810160405280929190818152602001828054610aca9061330d565b8015610b175780601f10610aec57610100808354040283529160200191610b17565b820191906000526020600020905b815481529060010190602001808311610afa57829003601f168201915b5050505050905090565b610b33610b2c611394565b8383611a16565b5050565b6000610b436007611b83565b905090565b60078060000154905081565b60606000610b88610b648461179a565b604051602001610b749190612cbc565b604051602081830303815290604052611947565b9050600a8054905081610b9b91906133b9565b9050600a8181548110610bd7577f4e487b7100000000000000000000000000000000000000000000000000000000600052603260045260246000fd5b906000526020600020018054610bec9061330d565b80601f0160208091040260200160405190810160405280929190818152602001828054610c189061330d565b8015610c655780601f10610c3a57610100808354040283529160200191610c65565b820191906000526020600020905b815481529060010190602001808311610c4857829003601f168201915b5050505050915050919050565b610c83610c7d611394565b83611455565b610cc2576040517f08c379a0000000000000000000000000000000000000000000000000000000008152600401610cb990613059565b60405180910390fd5b610cce84848484611b91565b50505050565b60606000610d08610ce48461179a565b604051602001610cf49190612c9a565b604051602081830303815290604052611947565b9050600b8054905081610d1b91906133b9565b9050600b8181548110610d57577f4e487b7100000000000000000000000000000000000000000000000000000000600052603260045260246000fd5b906000526020600020018054610d6c9061330d565b80601f0160208091040260200160405190810160405280929190818152602001828054610d989061330d565b8015610de55780601f10610dba57610100808354040283529160200191610de5565b820191906000526020600020905b815481529060010190602001808311610dc857829003601f168201915b5050505050915050919050565b6060610dfd82611328565b610e3c576040517f08c379a0000000000000000000000000000000000000000000000000000000008152600401610e3390612fd9565b60405180910390fd5b6000600660008481526020019081526020016000208054610e5c9061330d565b80601f0160208091040260200160405190810160405280929190818152602001828054610e889061330d565b8015610ed55780601f10610eaa57610100808354040283529160200191610ed5565b820191906000526020600020905b815481529060010190602001808311610eb857829003601f168201915b505050505090506000610ee6611bed565b9050600081511415610efc578192505050610f3f565b600082511115610f31578082604051602001610f19929190612c16565b60405160208183030381529060405292505050610f3f565b610f3a84611c04565b925050505b919050565b600080610f516007611b83565b90506032811115610f6657600091505061118e565b6000610f7182610769565b90506000610f7e83610b54565b90506000610f8b84610cd4565b90506000838383604051602001610fa493929190612c3a565b60405160208183030381529060405290506000600882604051602001610fcb929190612c6b565b604051602081830303815290604052905061101a6040518060400160405280601581526020017f0a2d2d2d2d2d205356472064617461202d2d2d2d2d0000000000000000000000815250611225565b61102381611225565b6110616040518060400160405280601581526020017f2d2d2d2d2d2d2d2d2d2d2d2d2d2d2d2d2d2d2d2d0a0000000000000000000000815250611225565b60006110958361107084611cab565b604051602001611081929190612cde565b604051602081830303815290604052611cab565b90506000816040516020016110aa9190612d45565b60405160208183030381529060405290506110f96040518060400160405280601581526020017f0a2d2d2d2d2d20546f6b656e20555249202d2d2d2d0000000000000000000000815250611225565b61110281611225565b6111406040518060400160405280601581526020017f2d2d2d2d2d2d2d2d2d2d2d2d2d2d2d2d2d2d2d2d0a0000000000000000000000815250611225565b61114a3389611e69565b6111548882611e87565b611177604051806060016040528060258152602001613b4c602591398933611efb565b6111816007611f9a565b6001985050505050505050505b90565b6000600560008473ffffffffffffffffffffffffffffffffffffffff1673ffffffffffffffffffffffffffffffffffffffff16815260200190815260200160002060008373ffffffffffffffffffffffffffffffffffffffff1673ffffffffffffffffffffffffffffffffffffffff16815260200190815260200160002060009054906101000a900460ff16905092915050565b6112bb816040516024016112399190612de9565b6040516020818303038152906040527f41304fac000000000000000000000000000000000000000000000000000000007bffffffffffffffffffffffffffffffffffffffffffffffffffffffff19166020820180517bffffffffffffffffffffffffffffffffffffffffffffffffffffffff8381831617835250505050611fb0565b50565b60007f01ffc9a7000000000000000000000000000000000000000000000000000000007bffffffffffffffffffffffffffffffffffffffffffffffffffffffff1916827bffffffffffffffffffffffffffffffffffffffffffffffffffffffff1916149050919050565b60008073ffffffffffffffffffffffffffffffffffffffff166002600084815260200190815260200160002060009054906101000a900473ffffffffffffffffffffffffffffffffffffffff1673ffffffffffffffffffffffffffffffffffffffff1614159050919050565b600033905090565b816004600083815260200190815260200160002060006101000a81548173ffffffffffffffffffffffffffffffffffffffff021916908373ffffffffffffffffffffffffffffffffffffffff160217905550808273ffffffffffffffffffffffffffffffffffffffff1661140f83610925565b73ffffffffffffffffffffffffffffffffffffffff167f8c5be1e5ebec7d5bd14f71427d1e84f3dd0314c0f7b2291e5b200ac8c7c3b92560405160405180910390a45050565b600061146082611328565b61149f576040517f08c379a000000000000000000000000000000000000000000000000000000000815260040161149690612f19565b60405180910390fd5b60006114aa83610925565b90508073ffffffffffffffffffffffffffffffffffffffff168473ffffffffffffffffffffffffffffffffffffffff16148061151957508373ffffffffffffffffffffffffffffffffffffffff166115018461056c565b73ffffffffffffffffffffffffffffffffffffffff16145b8061152a57506115298185611191565b5b91505092915050565b8273ffffffffffffffffffffffffffffffffffffffff1661155382610925565b73ffffffffffffffffffffffffffffffffffffffff16146115a9576040517f08c379a00000000000000000000000000000000000000000000000000000000081526004016115a090612e99565b60405180910390fd5b600073ffffffffffffffffffffffffffffffffffffffff168273ffffffffffffffffffffffffffffffffffffffff161415611619576040517f08c379a000000000000000000000000000000000000000000000000000000000815260040161161090612ed9565b60405180910390fd5b611624838383611fd9565b61162f60008261139c565b6001600360008573ffffffffffffffffffffffffffffffffffffffff1673ffffffffffffffffffffffffffffffffffffffff168152602001908152602001600020600082825461167f9190613223565b925050819055506001600360008473ffffffffffffffffffffffffffffffffffffffff1673ffffffffffffffffffffffffffffffffffffffff16815260200190815260200160002060008282546116d69190613142565b92505081905550816002600083815260200190815260200160002060006101000a81548173ffffffffffffffffffffffffffffffffffffffff021916908373ffffffffffffffffffffffffffffffffffffffff160217905550808273ffffffffffffffffffffffffffffffffffffffff168473ffffffffffffffffffffffffffffffffffffffff167fddf252ad1be2c89b69c2b068fc378daa952ba7f163c4a11628f55a4df523b3ef60405160405180910390a4611795838383611fde565b505050565b606060008214156117e2576040518060400160405280600181526020017f30000000000000000000000000000000000000000000000000000000000000008152509050611942565b600082905060005b600082146118145780806117fd90613370565b915050600a8261180d9190613198565b91506117ea565b60008167ffffffffffffffff811115611856577f4e487b7100000000000000000000000000000000000000000000000000000000600052604160045260246000fd5b6040519080825280601f01601f1916602001820160405280156118885781602001600182028036833780820191505090505b5090505b6000851461193b576001826118a19190613223565b9150600a856118b091906133b9565b60306118bc9190613142565b60f81b8183815181106118f8577f4e487b7100000000000000000000000000000000000000000000000000000000600052603260045260246000fd5b60200101907effffffffffffffffffffffffffffffffffffffffffffffffffffffffffffff1916908160001a905350600a856119349190613198565b945061188c565b8093505050505b919050565b60008160405160200161195a9190612bff565b6040516020818303038152906040528051906020012060001c9050919050565b611a128282604051602401611990929190612e0b565b6040516020818303038152906040527f9710a9d0000000000000000000000000000000000000000000000000000000007bffffffffffffffffffffffffffffffffffffffffffffffffffffffff19166020820180517bffffffffffffffffffffffffffffffffffffffffffffffffffffffff8381831617835250505050611fb0565b5050565b8173ffffffffffffffffffffffffffffffffffffffff168373ffffffffffffffffffffffffffffffffffffffff161415611a85576040517f08c379a0000000000000000000000000000000000000000000000000000000008152600401611a7c90612ef9565b60405180910390fd5b80600560008573ffffffffffffffffffffffffffffffffffffffff1673ffffffffffffffffffffffffffffffffffffffff16815260200190815260200160002060008473ffffffffffffffffffffffffffffffffffffffff1673ffffffffffffffffffffffffffffffffffffffff16815260200190815260200160002060006101000a81548160ff0219169083151502179055508173ffffffffffffffffffffffffffffffffffffffff168373ffffffffffffffffffffffffffffffffffffffff167f17307eab39ab6107e8899845ad3d59bd9653f200f220920489ca2b5937696c3183604051611b769190612dce565b60405180910390a3505050565b600081600001549050919050565b611b9c848484611533565b611ba884848484611fe3565b611be7576040517f08c379a0000000000000000000000000000000000000000000000000000000008152600401611bde90612e79565b60405180910390fd5b50505050565b606060405180602001604052806000815250905090565b6060611c0f82611328565b611c4e576040517f08c379a0000000000000000000000000000000000000000000000000000000008152600401611c4590613019565b60405180910390fd5b6000611c58611bed565b90506000815111611c785760405180602001604052806000815250611ca3565b80611c828461179a565b604051602001611c93929190612c16565b6040516020818303038152906040525b915050919050565b60606000825190506000811415611cd45760405180602001604052806000815250915050611e64565b60006003600283611ce59190613142565b611cef9190613198565b6004611cfb91906131c9565b90506000602082611d0c9190613142565b67ffffffffffffffff811115611d4b577f4e487b7100000000000000000000000000000000000000000000000000000000600052604160045260246000fd5b6040519080825280601f01601f191660200182016040528015611d7d5781602001600182028036833780820191505090505b5090506000604051806060016040528060408152602001613b71604091399050600181016020830160005b86811015611e215760038101905062ffffff818a015116603f8160121c168401518060081b905060ff603f83600c1c1686015116810190508060081b905060ff603f8360061c1686015116810190508060081b905060ff603f831686015116810190508060e01b90508084526004840193505050611da8565b506003860660018114611e3b5760028114611e4b57611e56565b613d3d60f01b6002830352611e56565b603d60f81b60018303525b508484525050819450505050505b919050565b611e8382826040518060200160405280600081525061217a565b5050565b611e9082611328565b611ecf576040517f08c379a0000000000000000000000000000000000000000000000000000000008152600401611ec690612f99565b60405180910390fd5b80600660008481526020019081526020016000209080519060200190611ef69291906123d2565b505050565b611f95838383604051602401611f1393929190612e3b565b6040516020818303038152906040527fe3849f79000000000000000000000000000000000000000000000000000000007bffffffffffffffffffffffffffffffffffffffffffffffffffffffff19166020820180517bffffffffffffffffffffffffffffffffffffffffffffffffffffffff8381831617835250505050611fb0565b505050565b6001816000016000828254019250508190555050565b60008151905060006a636f6e736f6c652e6c6f679050602083016000808483855afa5050505050565b505050565b505050565b60006120048473ffffffffffffffffffffffffffffffffffffffff166121d5565b1561216d578373ffffffffffffffffffffffffffffffffffffffff1663150b7a0261202d611394565b8786866040518563ffffffff1660e01b815260040161204f9493929190612d82565b602060405180830381600087803b15801561206957600080fd5b505af192505050801561209a57506040513d601f19601f820116820180604052508101906120979190612716565b60015b61211d573d80600081146120ca576040519150601f19603f3d011682016040523d82523d6000602084013e6120cf565b606091505b50600081511415612115576040517f08c379a000000000000000000000000000000000000000000000000000000000815260040161210c90612e79565b60405180910390fd5b805181602001fd5b63150b7a0260e01b7bffffffffffffffffffffffffffffffffffffffffffffffffffffffff1916817bffffffffffffffffffffffffffffffffffffffffffffffffffffffff191614915050612172565b600190505b949350505050565b61218483836121f8565b6121916000848484611fe3565b6121d0576040517f08c379a00000000000000000000000000000000000000000000000000000000081526004016121c790612e79565b60405180910390fd5b505050565b6000808273ffffffffffffffffffffffffffffffffffffffff163b119050919050565b600073ffffffffffffffffffffffffffffffffffffffff168273ffffffffffffffffffffffffffffffffffffffff161415612268576040517f08c379a000000000000000000000000000000000000000000000000000000000815260040161225f90612fb9565b60405180910390fd5b61227181611328565b156122b1576040517f08c379a00000000000000000000000000000000000000000000000000000000081526004016122a890612eb9565b60405180910390fd5b6122bd60008383611fd9565b6001600360008473ffffffffffffffffffffffffffffffffffffffff1673ffffffffffffffffffffffffffffffffffffffff168152602001908152602001600020600082825461230d9190613142565b92505081905550816002600083815260200190815260200160002060006101000a81548173ffffffffffffffffffffffffffffffffffffffff021916908373ffffffffffffffffffffffffffffffffffffffff160217905550808273ffffffffffffffffffffffffffffffffffffffff16600073ffffffffffffffffffffffffffffffffffffffff167fddf252ad1be2c89b69c2b068fc378daa952ba7f163c4a11628f55a4df523b3ef60405160405180910390a46123ce60008383611fde565b5050565b8280546123de9061330d565b90600052602060002090601f0160209004810192826124005760008555612447565b82601f1061241957805160ff1916838001178555612447565b82800160010185558215612447579182015b8281111561244657825182559160200191906001019061242b565b5b5090506124549190612458565b5090565b5b80821115612471576000816000905550600101612459565b5090565b6000612488612483846130b9565b613094565b9050828152602081018484840111156124a057600080fd5b6124ab8482856132cb565b509392505050565b6000813590506124c281613aef565b92915050565b6000813590506124d781613b06565b92915050565b6000813590506124ec81613b1d565b92915050565b60008151905061250181613b1d565b92915050565b600082601f83011261251857600080fd5b8135612528848260208601612475565b91505092915050565b60008135905061254081613b34565b92915050565b60006020828403121561255857600080fd5b6000612566848285016124b3565b91505092915050565b6000806040838503121561258257600080fd5b6000612590858286016124b3565b92505060206125a1858286016124b3565b9150509250929050565b6000806000606084860312156125c057600080fd5b60006125ce868287016124b3565b93505060206125df868287016124b3565b92505060406125f086828701612531565b9150509250925092565b6000806000806080858703121561261057600080fd5b600061261e878288016124b3565b945050602061262f878288016124b3565b935050604061264087828801612531565b925050606085013567ffffffffffffffff81111561265d57600080fd5b61266987828801612507565b91505092959194509250565b6000806040838503121561268857600080fd5b6000612696858286016124b3565b92505060206126a7858286016124c8565b9150509250929050565b600080604083850312156126c457600080fd5b60006126d2858286016124b3565b92505060206126e385828601612531565b9150509250929050565b6000602082840312156126ff57600080fd5b600061270d848285016124dd565b91505092915050565b60006020828403121561272857600080fd5b6000612736848285016124f2565b91505092915050565b60006020828403121561275157600080fd5b600061275f84828501612531565b91505092915050565b61277181613257565b82525050565b61278081613269565b82525050565b6000612791826130ff565b61279b8185613115565b93506127ab8185602086016132da565b6127b4816134a6565b840191505092915050565b60006127ca8261310a565b6127d48185613126565b93506127e48185602086016132da565b6127ed816134a6565b840191505092915050565b60006128038261310a565b61280d8185613137565b935061281d8185602086016132da565b80840191505092915050565b600081546128368161330d565b6128408186613137565b9450600182166000811461285b576001811461286c5761289f565b60ff1983168652818601935061289f565b612875856130ea565b60005b8381101561289757815481890152600182019150602081019050612878565b838801955050505b50505092915050565b60006128b5603283613126565b91506128c0826134b7565b604082019050919050565b60006128d8602583613126565b91506128e382613506565b604082019050919050565b60006128fb601c83613126565b915061290682613555565b602082019050919050565b600061291e600a83613137565b91506129298261357e565b600a82019050919050565b6000612941602483613126565b915061294c826135a7565b604082019050919050565b6000612964601983613126565b915061296f826135f6565b602082019050919050565b6000612987606383613137565b91506129928261361f565b606382019050919050565b60006129aa600b83613137565b91506129b5826136ba565b600b82019050919050565b60006129cd602c83613126565b91506129d8826136e3565b604082019050919050565b60006129f0600d83613137565b91506129fb82613732565b600d82019050919050565b6000612a13603883613126565b9150612a1e8261375b565b604082019050919050565b6000612a36602a83613126565b9150612a41826137aa565b604082019050919050565b6000612a59602983613126565b9150612a64826137f9565b604082019050919050565b6000612a7c602e83613126565b9150612a8782613848565b604082019050919050565b6000612a9f600283613137565b9150612aaa82613897565b600282019050919050565b6000612ac2602083613126565b9150612acd826138c0565b602082019050919050565b6000612ae5603183613126565b9150612af0826138e9565b604082019050919050565b6000612b08602c83613126565b9150612b1382613938565b604082019050919050565b6000612b2b602f83613126565b9150612b3682613987565b604082019050919050565b6000612b4e600a83613137565b9150612b59826139d6565b600a82019050919050565b6000612b71602183613126565b9150612b7c826139ff565b604082019050919050565b6000612b94600a83613137565b9150612b9f82613a4e565b600a82019050919050565b6000612bb7601d83613137565b9150612bc282613a77565b601d82019050919050565b6000612bda603183613126565b9150612be582613aa0565b604082019050919050565b612bf9816132c1565b82525050565b6000612c0b82846127f8565b915081905092915050565b6000612c2282856127f8565b9150612c2e82846127f8565b91508190509392505050565b6000612c4682866127f8565b9150612c5282856127f8565b9150612c5e82846127f8565b9150819050949350505050565b6000612c778285612829565b9150612c8382846127f8565b9150612c8e826129e3565b91508190509392505050565b6000612ca582612911565b9150612cb182846127f8565b915081905092915050565b6000612cc78261299d565b9150612cd382846127f8565b915081905092915050565b6000612ce982612b41565b9150612cf582856127f8565b9150612d008261297a565b9150612d0c82846127f8565b9150612d1782612a92565b91508190509392505050565b6000612d2e82612b87565b9150612d3a82846127f8565b915081905092915050565b6000612d5082612baa565b9150612d5c82846127f8565b915081905092915050565b6000602082019050612d7c6000830184612768565b92915050565b6000608082019050612d976000830187612768565b612da46020830186612768565b612db16040830185612bf0565b8181036060830152612dc38184612786565b905095945050505050565b6000602082019050612de36000830184612777565b92915050565b60006020820190508181036000830152612e0381846127bf565b905092915050565b60006040820190508181036000830152612e2581856127bf565b9050612e346020830184612bf0565b9392505050565b60006060820190508181036000830152612e5581866127bf565b9050612e646020830185612bf0565b612e716040830184612768565b949350505050565b60006020820190508181036000830152612e92816128a8565b9050919050565b60006020820190508181036000830152612eb2816128cb565b9050919050565b60006020820190508181036000830152612ed2816128ee565b9050919050565b60006020820190508181036000830152612ef281612934565b9050919050565b60006020820190508181036000830152612f1281612957565b9050919050565b60006020820190508181036000830152612f32816129c0565b9050919050565b60006020820190508181036000830152612f5281612a06565b9050919050565b60006020820190508181036000830152612f7281612a29565b9050919050565b60006020820190508181036000830152612f9281612a4c565b9050919050565b60006020820190508181036000830152612fb281612a6f565b9050919050565b60006020820190508181036000830152612fd281612ab5565b9050919050565b60006020820190508181036000830152612ff281612ad8565b9050919050565b6000602082019050818103600083015261301281612afb565b9050919050565b6000602082019050818103600083015261303281612b1e565b9050919050565b6000602082019050818103600083015261305281612b64565b9050919050565b6000602082019050818103600083015261307281612bcd565b9050919050565b600060208201905061308e6000830184612bf0565b92915050565b600061309e6130af565b90506130aa828261333f565b919050565b6000604051905090565b600067ffffffffffffffff8211156130d4576130d3613477565b5b6130dd826134a6565b9050602081019050919050565b60008190508160005260206000209050919050565b600081519050919050565b600081519050919050565b600082825260208201905092915050565b600082825260208201905092915050565b600081905092915050565b600061314d826132c1565b9150613158836132c1565b9250827fffffffffffffffffffffffffffffffffffffffffffffffffffffffffffffffff0382111561318d5761318c6133ea565b5b828201905092915050565b60006131a3826132c1565b91506131ae836132c1565b9250826131be576131bd613419565b5b828204905092915050565b60006131d4826132c1565b91506131df836132c1565b9250817fffffffffffffffffffffffffffffffffffffffffffffffffffffffffffffffff0483118215151615613218576132176133ea565b5b828202905092915050565b600061322e826132c1565b9150613239836132c1565b92508282101561324c5761324b6133ea565b5b828203905092915050565b6000613262826132a1565b9050919050565b60008115159050919050565b60007fffffffff0000000000000000000000000000000000000000000000000000000082169050919050565b600073ffffffffffffffffffffffffffffffffffffffff82169050919050565b6000819050919050565b82818337600083830152505050565b60005b838110156132f85780820151818401526020810190506132dd565b83811115613307576000848401525b50505050565b6000600282049050600182168061332557607f821691505b6020821081141561333957613338613448565b5b50919050565b613348826134a6565b810181811067ffffffffffffffff8211171561336757613366613477565b5b80604052505050565b600061337b826132c1565b91507fffffffffffffffffffffffffffffffffffffffffffffffffffffffffffffffff8214156133ae576133ad6133ea565b5b600182019050919050565b60006133c4826132c1565b91506133cf836132c1565b9250826133df576133de613419565b5b828206905092915050565b7f4e487b7100000000000000000000000000000000000000000000000000000000600052601160045260246000fd5b7f4e487b7100000000000000000000000000000000000000000000000000000000600052601260045260246000fd5b7f4e487b7100000000000000000000000000000000000000000000000000000000600052602260045260246000fd5b7f4e487b7100000000000000000000000000000000000000000000000000000000600052604160045260246000fd5b6000601f19601f8301169050919050565b7f4552433732313a207472616e7366657220746f206e6f6e20455243373231526560008201527f63656976657220696d706c656d656e7465720000000000000000000000000000602082015250565b7f4552433732313a207472616e736665722066726f6d20696e636f72726563742060008201527f6f776e6572000000000000000000000000000000000000000000000000000000602082015250565b7f4552433732313a20746f6b656e20616c7265616479206d696e74656400000000600082015250565b7f54484952445f574f524400000000000000000000000000000000000000000000600082015250565b7f4552433732313a207472616e7366657220746f20746865207a65726f2061646460008201527f7265737300000000000000000000000000000000000000000000000000000000602082015250565b7f4552433732313a20617070726f766520746f2063616c6c657200000000000000600082015250565b7f222c20226465736372697074696f6e223a20224120686967686c79206163636c60008201527f61696d656420636f6c6c656374696f6e206f6620737175617265732e222c202260208201527f696d616765223a2022646174613a696d6167652f7376672b786d6c3b6261736560408201527f36342c0000000000000000000000000000000000000000000000000000000000606082015250565b7f5345434f4e445f574f5244000000000000000000000000000000000000000000600082015250565b7f4552433732313a206f70657261746f7220717565727920666f72206e6f6e657860008201527f697374656e7420746f6b656e0000000000000000000000000000000000000000602082015250565b7f3c2f746578743e3c2f7376673e00000000000000000000000000000000000000600082015250565b7f4552433732313a20617070726f76652063616c6c6572206973206e6f74206f7760008201527f6e6572206e6f7220617070726f76656420666f7220616c6c0000000000000000602082015250565b7f4552433732313a2062616c616e636520717565727920666f7220746865207a6560008201527f726f206164647265737300000000000000000000000000000000000000000000602082015250565b7f4552433732313a206f776e657220717565727920666f72206e6f6e657869737460008201527f656e7420746f6b656e0000000000000000000000000000000000000000000000602082015250565b7f45524337323155524953746f726167653a2055524920736574206f66206e6f6e60008201527f6578697374656e7420746f6b656e000000000000000000000000000000000000602082015250565b7f227d000000000000000000000000000000000000000000000000000000000000600082015250565b7f4552433732313a206d696e7420746f20746865207a65726f2061646472657373600082015250565b7f45524337323155524953746f726167653a2055524920717565727920666f722060008201527f6e6f6e6578697374656e7420746f6b656e000000000000000000000000000000602082015250565b7f4552433732313a20617070726f76656420717565727920666f72206e6f6e657860008201527f697374656e7420746f6b656e0000000000000000000000000000000000000000602082015250565b7f4552433732314d657461646174613a2055524920717565727920666f72206e6f60008201527f6e6578697374656e7420746f6b656e0000000000000000000000000000000000602082015250565b7f7b226e616d65223a202200000000000000000000000000000000000000000000600082015250565b7f4552433732313a20617070726f76616c20746f2063757272656e74206f776e6560008201527f7200000000000000000000000000000000000000000000000000000000000000602082015250565b7f46495253545f574f524400000000000000000000000000000000000000000000600082015250565b7f646174613a6170706c69636174696f6e2f6a736f6e3b6261736536342c000000600082015250565b7f4552433732313a207472616e736665722063616c6c6572206973206e6f74206f60008201527f776e6572206e6f7220617070726f766564000000000000000000000000000000602082015250565b613af881613257565b8114613b0357600080fd5b50565b613b0f81613269565b8114613b1a57600080fd5b50565b613b2681613275565b8114613b3157600080fd5b50565b613b3d816132c1565b8114613b4857600080fd5b5056fe416e204e465420772f20494420257320686173206265656e206d696e74656420746f2025734142434445464748494a4b4c4d4e4f505152535455565758595a6162636465666768696a6b6c6d6e6f707172737475767778797a303132333435363738392b2fa2646970667358221220ad84cd3427452f139e2a636c559e4a22b295482d3c14722b9d2b932909b202b464736f6c634300080400333c73766720786d6c6e733d27687474703a2f2f7777772e77332e6f72672f323030302f73766727207072657365727665417370656374526174696f3d27784d696e594d696e206d656574272076696577426f783d273020302033353020333530273e3c7374796c653e2e62617365207b2066696c6c3a2077686974653b20666f6e742d66616d696c793a2073657269663b20666f6e742d73697a653a20323470783b207d3c2f7374796c653e3c726563742077696474683d273130302527206865696768743d2731303025272066696c6c3d27626c61636b27202f3e3c7465787420783d273530252720793d273530252720636c6173733d27626173652720646f6d696e616e742d626173656c696e653d276d6964646c652720746578742d616e63686f723d276d6964646c65273e",
    "linkReferences": {},
    "deployedLinkReferences": {}
}